{
  "_format": "hh-sol-artifact-1",
  "contractName": "TokenLiquidator",
  "sourceName": "contracts/TokenLiquidator.sol",
  "abi": [
    {
      "anonymous": false,
      "inputs": [
        {
          "indexed": true,
          "internalType": "uint256",
          "name": "amountA",
          "type": "uint256"
        },
        {
          "indexed": true,
          "internalType": "uint256",
          "name": "amountB",
          "type": "uint256"
        },
        {
          "indexed": true,
          "internalType": "uint256",
          "name": "liquidity",
          "type": "uint256"
        }
      ],
      "name": "AddedLiquidity",
      "type": "event"
    },
    {
      "inputs": [
        {
          "internalType": "address",
          "name": "_pairAddress",
          "type": "address"
        },
        {
          "internalType": "address",
          "name": "_user",
          "type": "address"
        }
      ],
      "name": "getLiquidity",
      "outputs": [
        {
          "internalType": "uint256",
          "name": "liquidity",
          "type": "uint256"
        }
      ],
      "stateMutability": "view",
      "type": "function"
    },
    {
      "inputs": [
        {
          "internalType": "address",
          "name": "_tokenA",
          "type": "address"
        },
        {
          "internalType": "address",
          "name": "_tokenB",
          "type": "address"
        }
      ],
      "name": "getPairAddress",
      "outputs": [
        {
          "internalType": "address",
          "name": "pair",
          "type": "address"
        }
      ],
      "stateMutability": "view",
      "type": "function"
    },
    {
      "inputs": [
        {
          "internalType": "address",
          "name": "_tokenA",
          "type": "address"
        },
        {
          "internalType": "address",
          "name": "_tokenB",
          "type": "address"
        },
        {
          "internalType": "uint256",
          "name": "_amount",
          "type": "uint256"
        }
      ],
      "name": "provideLiquidity",
      "outputs": [],
      "stateMutability": "nonpayable",
      "type": "function"
    },
    {
      "inputs": [],
      "name": "uniswapV2Factory",
      "outputs": [
        {
          "internalType": "contract IUniswapV2Factory",
          "name": "",
          "type": "address"
        }
      ],
      "stateMutability": "view",
      "type": "function"
    },
    {
      "inputs": [],
      "name": "uniswapV2Router",
      "outputs": [
        {
          "internalType": "contract IUniswapV2Router02",
          "name": "",
          "type": "address"
        }
      ],
      "stateMutability": "view",
      "type": "function"
    }
  ],
  "bytecode": "0x6080604052737a250d5630b4cf539739df2c5dacb4c659f2488d6000806101000a81548173ffffffffffffffffffffffffffffffffffffffff021916908373ffffffffffffffffffffffffffffffffffffffff160217905550735c69bee701ef814a2b6a3edd4b1652cb9cc5aa6f600160006101000a81548173ffffffffffffffffffffffffffffffffffffffff021916908373ffffffffffffffffffffffffffffffffffffffff1602179055503480156100b957600080fd5b506113c2806100c96000396000f3fe608060405234801561001057600080fd5b50600436106100575760003560e01c80631694505e1461005c57806359d0f7131461007a5780639e8b6b7f14610098578063b4f69a2f146100b4578063ea526de7146100e4575b600080fd5b610064610114565b6040516100719190611001565b60405180910390f35b610082610138565b60405161008f9190610fe6565b60405180910390f35b6100b260048036038101906100ad9190610cc3565b61015e565b005b6100ce60048036038101906100c99190610c87565b610276565b6040516100db9190610ec4565b60405180910390f35b6100fe60048036038101906100f99190610c87565b61032d565b60405161010b919061101c565b60405180910390f35b60008054906101000a900473ffffffffffffffffffffffffffffffffffffffff1681565b600160009054906101000a900473ffffffffffffffffffffffffffffffffffffffff1681565b8273ffffffffffffffffffffffffffffffffffffffff166323b872dd3330846040518463ffffffff1660e01b815260040161019b93929190610f08565b602060405180830381600087803b1580156101b557600080fd5b505af11580156101c9573d6000803e3d6000fd5b505050506040513d601f19601f820116820180604052508101906101ed9190610d53565b5060006002826101fd9190611171565b905060008061020f86868560016103c0565b9050806001825161022091906111a2565b81518110610257577f4e487b7100000000000000000000000000000000000000000000000000000000600052603260045260246000fd5b6020026020010151915061026e868685853361090f565b505050505050565b6000600160009054906101000a900473ffffffffffffffffffffffffffffffffffffffff1673ffffffffffffffffffffffffffffffffffffffff1663e6a4390584846040518363ffffffff1660e01b81526004016102d5929190610edf565b60206040518083038186803b1580156102ed57600080fd5b505afa158015610301573d6000803e3d6000fd5b505050506040513d601f19601f820116820180604052508101906103259190610c5e565b905092915050565b60008273ffffffffffffffffffffffffffffffffffffffff166370a08231836040518263ffffffff1660e01b81526004016103689190610ec4565b60206040518083038186803b15801561038057600080fd5b505afa158015610394573d6000803e3d6000fd5b505050506040513d601f19601f820116820180604052508101906103b89190610d7c565b905092915050565b60608473ffffffffffffffffffffffffffffffffffffffff1663095ea7b3737a250d5630b4cf539739df2c5dacb4c659f2488d856040518363ffffffff1660e01b8152600401610411929190610fbd565b602060405180830381600087803b15801561042b57600080fd5b505af115801561043f573d6000803e3d6000fd5b505050506040513d601f19601f820116820180604052508101906104639190610d53565b50606073c778417e063141139fce010982780140aa0cd5ab73ffffffffffffffffffffffffffffffffffffffff168673ffffffffffffffffffffffffffffffffffffffff1614806104f3575073c778417e063141139fce010982780140aa0cd5ab73ffffffffffffffffffffffffffffffffffffffff168573ffffffffffffffffffffffffffffffffffffffff16145b1561065957600267ffffffffffffffff811115610539577f4e487b7100000000000000000000000000000000000000000000000000000000600052604160045260246000fd5b6040519080825280602002602001820160405280156105675781602001602082028036833780820191505090505b50905085816000815181106105a5577f4e487b7100000000000000000000000000000000000000000000000000000000600052603260045260246000fd5b602002602001019073ffffffffffffffffffffffffffffffffffffffff16908173ffffffffffffffffffffffffffffffffffffffff1681525050848160018151811061061a577f4e487b7100000000000000000000000000000000000000000000000000000000600052603260045260246000fd5b602002602001019073ffffffffffffffffffffffffffffffffffffffff16908173ffffffffffffffffffffffffffffffffffffffff168152505061083f565b600367ffffffffffffffff81111561069a577f4e487b7100000000000000000000000000000000000000000000000000000000600052604160045260246000fd5b6040519080825280602002602001820160405280156106c85781602001602082028036833780820191505090505b5090508581600081518110610706577f4e487b7100000000000000000000000000000000000000000000000000000000600052603260045260246000fd5b602002602001019073ffffffffffffffffffffffffffffffffffffffff16908173ffffffffffffffffffffffffffffffffffffffff168152505073c778417e063141139fce010982780140aa0cd5ab8160018151811061078f577f4e487b7100000000000000000000000000000000000000000000000000000000600052603260045260246000fd5b602002602001019073ffffffffffffffffffffffffffffffffffffffff16908173ffffffffffffffffffffffffffffffffffffffff16815250508481600281518110610804577f4e487b7100000000000000000000000000000000000000000000000000000000600052603260045260246000fd5b602002602001019073ffffffffffffffffffffffffffffffffffffffff16908173ffffffffffffffffffffffffffffffffffffffff16815250505b60008054906101000a900473ffffffffffffffffffffffffffffffffffffffff1673ffffffffffffffffffffffffffffffffffffffff166338ed173985858430611c204261088d919061111b565b6040518663ffffffff1660e01b81526004016108ad959493929190611037565b600060405180830381600087803b1580156108c757600080fd5b505af11580156108db573d6000803e3d6000fd5b505050506040513d6000823e3d601f19601f820116820180604052508101906109049190610d12565b915050949350505050565b8473ffffffffffffffffffffffffffffffffffffffff1663095ea7b3737a250d5630b4cf539739df2c5dacb4c659f2488d856040518363ffffffff1660e01b815260040161095e929190610fbd565b602060405180830381600087803b15801561097857600080fd5b505af115801561098c573d6000803e3d6000fd5b505050506040513d601f19601f820116820180604052508101906109b09190610d53565b508373ffffffffffffffffffffffffffffffffffffffff1663095ea7b3737a250d5630b4cf539739df2c5dacb4c659f2488d846040518363ffffffff1660e01b8152600401610a00929190610fbd565b602060405180830381600087803b158015610a1a57600080fd5b505af1158015610a2e573d6000803e3d6000fd5b505050506040513d601f19601f82011682018060405250810190610a529190610d53565b5060008060008060009054906101000a900473ffffffffffffffffffffffffffffffffffffffff1673ffffffffffffffffffffffffffffffffffffffff1663e8e33700898989896001808b611c2042610aab919061111b565b6040518963ffffffff1660e01b8152600401610ace989796959493929190610f3f565b606060405180830381600087803b158015610ae857600080fd5b505af1158015610afc573d6000803e3d6000fd5b505050506040513d601f19601f82011682018060405250810190610b209190610da5565b9250925092508082847f947eb7d5785b0534dc368370fd3574434082455556a747116a88abea1ec6ceba60405160405180910390a45050505050505050565b6000610b72610b6d846110b6565b611091565b90508083825260208201905082856020860282011115610b9157600080fd5b60005b85811015610bc15781610ba78882610c49565b845260208401935060208301925050600181019050610b94565b5050509392505050565b600081359050610bda81611347565b92915050565b600081519050610bef81611347565b92915050565b600082601f830112610c0657600080fd5b8151610c16848260208601610b5f565b91505092915050565b600081519050610c2e8161135e565b92915050565b600081359050610c4381611375565b92915050565b600081519050610c5881611375565b92915050565b600060208284031215610c7057600080fd5b6000610c7e84828501610be0565b91505092915050565b60008060408385031215610c9a57600080fd5b6000610ca885828601610bcb565b9250506020610cb985828601610bcb565b9150509250929050565b600080600060608486031215610cd857600080fd5b6000610ce686828701610bcb565b9350506020610cf786828701610bcb565b9250506040610d0886828701610c34565b9150509250925092565b600060208284031215610d2457600080fd5b600082015167ffffffffffffffff811115610d3e57600080fd5b610d4a84828501610bf5565b91505092915050565b600060208284031215610d6557600080fd5b6000610d7384828501610c1f565b91505092915050565b600060208284031215610d8e57600080fd5b6000610d9c84828501610c49565b91505092915050565b600080600060608486031215610dba57600080fd5b6000610dc886828701610c49565b9350506020610dd986828701610c49565b9250506040610dea86828701610c49565b9150509250925092565b6000610e008383610e0c565b60208301905092915050565b610e15816111d6565b82525050565b610e24816111d6565b82525050565b6000610e35826110f2565b610e3f818561110a565b9350610e4a836110e2565b8060005b83811015610e7b578151610e628882610df4565b9750610e6d836110fd565b925050600181019050610e4e565b5085935050505092915050565b610e918161121e565b82525050565b610ea081611242565b82525050565b610eaf81611266565b82525050565b610ebe81611214565b82525050565b6000602082019050610ed96000830184610e1b565b92915050565b6000604082019050610ef46000830185610e1b565b610f016020830184610e1b565b9392505050565b6000606082019050610f1d6000830186610e1b565b610f2a6020830185610e1b565b610f376040830184610eb5565b949350505050565b600061010082019050610f55600083018b610e1b565b610f62602083018a610e1b565b610f6f6040830189610eb5565b610f7c6060830188610eb5565b610f896080830187610ea6565b610f9660a0830186610ea6565b610fa360c0830185610e1b565b610fb060e0830184610eb5565b9998505050505050505050565b6000604082019050610fd26000830185610e1b565b610fdf6020830184610eb5565b9392505050565b6000602082019050610ffb6000830184610e88565b92915050565b60006020820190506110166000830184610e97565b92915050565b60006020820190506110316000830184610eb5565b92915050565b600060a08201905061104c6000830188610eb5565b6110596020830187610eb5565b818103604083015261106b8186610e2a565b905061107a6060830185610e1b565b6110876080830184610eb5565b9695505050505050565b600061109b6110ac565b90506110a78282611278565b919050565b6000604051905090565b600067ffffffffffffffff8211156110d1576110d0611307565b5b602082029050602081019050919050565b6000819050602082019050919050565b600081519050919050565b6000602082019050919050565b600082825260208201905092915050565b600061112682611214565b915061113183611214565b9250827fffffffffffffffffffffffffffffffffffffffffffffffffffffffffffffffff03821115611166576111656112a9565b5b828201905092915050565b600061117c82611214565b915061118783611214565b925082611197576111966112d8565b5b828204905092915050565b60006111ad82611214565b91506111b883611214565b9250828210156111cb576111ca6112a9565b5b828203905092915050565b60006111e1826111f4565b9050919050565b60008115159050919050565b600073ffffffffffffffffffffffffffffffffffffffff82169050919050565b6000819050919050565b600061122982611230565b9050919050565b600061123b826111f4565b9050919050565b600061124d82611254565b9050919050565b600061125f826111f4565b9050919050565b600061127182611214565b9050919050565b61128182611336565b810181811067ffffffffffffffff821117156112a05761129f611307565b5b80604052505050565b7f4e487b7100000000000000000000000000000000000000000000000000000000600052601160045260246000fd5b7f4e487b7100000000000000000000000000000000000000000000000000000000600052601260045260246000fd5b7f4e487b7100000000000000000000000000000000000000000000000000000000600052604160045260246000fd5b6000601f19601f8301169050919050565b611350816111d6565b811461135b57600080fd5b50565b611367816111e8565b811461137257600080fd5b50565b61137e81611214565b811461138957600080fd5b5056fea264697066735822122022f90909d21a24fa7fcee28d15c43151dfa593a491af48d8ae4b902fcaab9fc164736f6c63430008040033",
  "linkReferences": {},
  "deployedLinkReferences": {}
}